:100000000C94F1000C9419010C9419010C94190131
:100010000C9419010C9419010C9419010C941901F8
:100020000C9419010C9419010C9441050C94B3051E
:100030000C9419010C9419010C9419010C941901D8
:100040000C9419010C9419010C9419010C941901C8
:100050000C9419010C9419010C9419010C94E307E8
:100060000C9419010C9419010C9419010C941901A8
:100070000C9419010C9419010C9419010C94190198
:100080000C9419010C9419010C9419010C94190188
:100090000C9419010C9419010C9419010C94190178
:1000A0000C9419010C9419010C9419010303060313
:1000B000F502F902FF022703270327030A030E03B1
:1000C000120318031C032703220396039B03A003B8
:1000D000AA03B403FE03FE03FE03BE03C803D20358
:1000E000DC03E903FE03F103000000002400270005
:1000F0002A002D00300000000000250028002B0001
:100100002E003100000000002300260029002C00F2
:100110002F00040404040403040502020202040381
:100120000202020206060606060604040202020491
:1001300004040802011040804010204080408008E4
:100140000204018040201002011080102040402055
:100150000000000200090F0000030401000C000071
:100160000000000000000000000000000000000887
:100170000B0002020201000904000001020200005B
:1001800005240010010524010101042402060524B0
:100190000600010705810310004009040100020A5E
:1001A000000000070502024000000705830240002E
:1001B000000403090412010002EF0201404123413F
:1001C0008000010102030141726475696E6F204C69
:1001D0004C430041726475696E6F2059756E000062
:1001E0002D0811241FBECFEFDAE0DEBFCDBF22E025
:1001F000A8E3B1E001C01D92AB31B207E1F711E015
:10020000A0E0B1E0E2EBF4E102C005900D92A8336A
:10021000B107D9F710E0C1EFD0E004C02197FE018B
:100220000E944C0AC03FD107C9F70E94A1080C9454
:10023000570A0C940000FC0180915601811103C003
:100240008FEF9FEF08959FB7F89482E08093E900C5
:100250002091F20030E01216130614F421E030E091
:100260002115310559F0289884E680935501809135
:10027000F10080838091F200882319F09FBFC901AB
:1002800008958BE68093E800F9CF2FB7F89483E0C8
:100290008093E9009091E800892F807295FF04C057
:1002A0009091F20080E4891B2FBF089580914D0149
:1002B00081110DC082E08093490184E080934A015E
:1002C00010924C0110924B0181E080934D0189E422
:1002D00091E00895409143015091440120914101E2
:1002E0003091420142175307B4F49091E8009570A1
:1002F000E1F39091E80092FD19C08093F1008091A4
:1003000043019091440101968F739927892B19F429
:100310008EEF8093E8008091430190914401019613
:10032000909344018093430181E0089580E0089513
:10033000CF92DF92EF92FF920F931F93CF93DF93B1
:100340001F92CDB7DEB7182F062FE42E862F880F09
:100350008E5F99830E946A0183E00E946A01F12EF8
:10036000C12E9981D92E8C2D8F19801798F4F60102
:10037000E7FE02C0849101C080810E946A01182FAB
:1003800080E00E946A018123FFEFCF1ADF0A81110A
:10039000EACF01C081E00F90DF91CF911F910F91C3
:1003A000FF90EF90DF90CF900895DF92EF92FF9251
:1003B0000F931F93CF93DF93D82E8A017B01E40E16
:1003C000F51EEB01CE15DF0571F0D7FE03C0FE016F
:1003D000849101C088810E946A0121968111F2CF27
:1003E0008FEF9FEF01C0C801DF91CF911F910F9157
:1003F000FF90EF90DF9008950F931F93CF93DF93BB
:100400001F92CDB7DEB782E0898342E450E06FE609
:1004100071E080E80E94D5010E945601DC0112962D
:100420000D911C9113970115110569F0D801ED91FB
:10043000FC910280F381E02DBE016F5F7F4FC80108
:10044000099597FF07C089810F90DF91CF911F9188
:100450000F910895F80100851185E5CF615030F0C6
:100460002091F100FC0120830196F8CF289884E6C2
:10047000809355010895CF92DF92EF92FF920F93F0
:100480001F93CF93DF936C017A018B01C0E0D0E022
:10049000CE15DF0589F0D8016D918D01D601ED9162
:1004A000FC910190F081E02DC6010995892B11F492
:1004B0007E0102C02196ECCFC701DF91CF911F9141
:1004C0000F91FF90EF90DF90CF900895CF93DF933F
:1004D0001F92CDB7DEB76983DC01ED91FC910280FC
:1004E000F381E02D41E050E0BE016F5F7F4F099541
:1004F0000F90DF91CF91089583E08093E900809180
:10050000F200882319F08AE38093E80008950E949E
:10051000450190E00895CF93DF931F92CDB7DEB7EA
:10052000FC018485958597FD05C02FEF3FEF35874A
:1005300024870BC0CE0101960E941B01019719F47C
:10054000898190E002C08FEF9FEF0F90DF91CF91F4
:1005500008950F931F93CF93DF931F92CDB7DEB70C
:100560008C01FC018485958597FF0EC0CE01019614
:100570000E941B01019719F4298130E002C02FEF7E
:100580003FEFF80135872487F801848595850F9022
:10059000DF91CF911F910F910895FC01848595857E
:1005A00097FD0BC09FB7F89482E08093E90080919B
:1005B000F2009FBF90E0019608959FB7F89482E003
:1005C0008093E9008091F2009FBF90E00895089524
:1005D00080E090E0089590E0FC013197EF30F10564
:1005E000B0F5EA5AFF4F0C944C0A809180008F7747
:1005F00003C0809180008F7D80938000089580915A
:100600008000877FF9CF84B58F7702C084B58F7D56
:1006100084BD0895809190008F7707C080919000ED
:100620008F7D03C080919000877F80939000089514
:100630008091C0008F7703C08091C0008F7D809330
:10064000C00008958091C200877F8093C200089502
:100650001F93CF93DF93282F30E0F901E05BFE4F2B
:100660008491F901EF5CFE4FD491F901EE5EFE4FEB
:10067000C491CC23C9F0162F81110E94EB02EC2FFC
:10068000F0E0EE0FFF1FEA50FF4FA591B4918FB736
:10069000F894111105C09C91ED2FE095E92302C05B
:1006A000EC91ED2BEC938FBFDF91CF911F910895CB
:1006B000CF93DF93DB01482F50E0FA01EF5CFE4F50
:1006C0009491FA01EE5EFE4F2491222399F030E0DE
:1006D000220F331FF901E851FF4FC591D491F90161
:1006E000EA50FF4F259134912FB7F894E881E92B18
:1006F000E8832FBF109711F460E004C0AF3FB1054D
:1007000029F461E0DF91CF910C942803FA01E05BBA
:10071000FE4FE4914E2F50E0FA013197EF30F10592
:1007200008F06CC0EB59FF4F0C944C0A84B58068FC
:1007300084BDA7BD68C084B5806284BDA8BD63C008
:1007400080918000806880938000B0938900A0939E
:10075000880059C080918000806280938000B093AF
:100760008B00A0938A004FC08091800088608093A6
:100770008000B0938D00A0938C0045C080919000C4
:10078000806880939000B0939900A09398003BC03C
:1007900080919000806280939000B0939B00A09322
:1007A0009A0031C080919000886080939000B0934F
:1007B0009D00A0939C0027C08091C000806880931A
:1007C000C0008091C0008F7B8093C000A093CF00B9
:1007D0001AC08091C00080628093C000A093D000B6
:1007E00012C08091C20088608093C2008091C200D4
:1007F0008B7F8093C200A093D20005C0A038B105C2
:100800000CF07FCF79CFDF91CF9108953FB7F89467
:1008100080913D0190913E01A0913F01B091400136
:1008200026B5A89B05C02F3F19F00196A11DB11D4B
:100830003FBFBA2FA92F982F8827820F911DA11D86
:10084000B11DBC01CD0142E0660F771F881F991FC3
:100850004A95D1F708958F929F92AF92BF92CF920F
:10086000DF92EF92FF926B017C010E9406044B0124
:100870005C01C114D104E104F104F1F00E9406040A
:10088000DC01CB0188199909AA09BB09883E93406C
:10089000A105B10570F321E0C21AD108E108F10801
:1008A00088EE880E83E0981EA11CB11CC114D104EF
:1008B000E104F10419F7DDCFFF90EF90DF90CF90C6
:1008C000BF90AF909F908F9008958F929F92AF921C
:1008D000BF92CF92DF92EF92FF920F931F93CF932D
:1008E000DF935C016B017A0180910B01882309F48D
:1008F0005BC080915601882309F456C0809147015E
:1009000080FF05C08091E00082608093E000E701F5
:1009100010E00AEF83E0882E9AE3992E2097D9F110
:100920000E94450181110AC0015009F43DC061E0F7
:1009300070E080E090E00E942B04F0CF282F30E0A0
:10094000C217D3070CF48C2F4FB7F8948092E900AC
:100950009091E80095FF1DC0282F30E0C21BD30BFB
:10096000F601982F915020F081918093F100FACFF9
:10097000C20ED31E112319F09092E80009C0809195
:10098000E80085FD06C09092E80011E0209709F08C
:1009900010E04FBFC3CF1111C3CF5D9884E68093A1
:1009A00048011E141F0444F081E090E0F501938398
:1009B000828380E090E001C0C701DF91CF911F9159
:1009C0000F91FF90EF90DF90CF90BF90AF909F90EE
:1009D0008F9008952FB7F8946091390170913A0182
:1009E00080913B0190913C012FBF0895CF92DF92FF
:1009F000EF92FF920F931F93CF93DF93EC010E942E
:100A0000EA042C813D816901330FEE08FF0808815B
:100A100019812A813B810C0D1D1D2E1D3F1D601764
:100A200071078207930730F0688379838A839B83F9
:100A300081E001C080E0DF91CF911F910F91FF9085
:100A4000EF90DF90CF900895CF93DF93EC010E9459
:100A5000F604882389F08885882339F060E070E007
:100A60008E810E945803188607C06FEF70E08E8158
:100A70000E94580381E08887DF91CF9108950E94FA
:100A8000520A1F920F920FB60F9211248F939F93C9
:100A90008091E1009091E100937F9093E10083FFCA
:100AA0000FC01092E90091E09093EB001092EC00DF
:100AB00092E39093ED001092560198E09093F0002D
:100AC00082FF20C093E09093E9009091F200992377
:100AD00019F09AE39093E80090914801992339F036
:100AE00090914801915090934801992389F19091F8
:100AF0005501992339F090915501915090935501EA
:100B0000992341F184FF10C08091E2008E7E8160C4
:100B10008093E2008091E1008F7E8093E1008091DC
:100B200047018E7E806111C080FF16C08091E20077
:100B30008E7E80618093E2008091E1008E7E8093C2
:100B4000E100809147018E7E81608093470104C05F
:100B50005D9ACDCF289AD6CF9F918F910F900FBEDF
:100B60000F901F9018951F920F920FB60F9211249D
:100B7000CF92DF92EF92FF920F931F932F933F93A9
:100B80004F935F936F937F938F939F93AF93BF9395
:100B9000EF93FF93CF93DF93CDB7DEB76C97DEBFB4
:100BA000CDBF1092E9008091E80083FFEDC168E0BD
:100BB000CE0145960E942E0282EF8093E8008D8937
:100BC00087FF05C09091E80090FFFCCF03C09EEF27
:100BD0009093E800982F907609F0C6C09E892F89DF
:100BE000188D91110CC0803829F4809146018093B2
:100BF000F10002C01092F1001092F10048C1422FA2
:100C000050E0512B913051F4811141C141305105D7
:100C100009F03DC1809146018D7F0BC0933061F496
:100C2000811135C14130510509F031C18091460132
:100C30008260809346012BC1953041F48091E80099
:100C400080FFFCCF20682093E30021C1963009F09B
:100C50005FC0EB8CFC8C1092E90010924401109262
:100C60004301123091F510924201109241010E940D
:100C7000FC0199E0BE016F5F7F4FDB01E92F1D9200
:100C8000EA95E9F799831A8391E09E8390EA988721
:100C90009AEF99872091430130914401275F3F4F9C
:100CA0003C832B838D831092E900109244011092B3
:100CB0004301F0924201E092410149E050E080E0BE
:100CC0000E94D5010E94FC01E2C0F0924201E09234
:100CD00041010E945601DC011296ED90FC901397A1
:100CE000E114F10409F4C0C0D701ED91FC91048036
:100CF000F581E02DBE016B5E7F4FC701099500971E
:100D000019F00CF0C4C0C7C0F701E084F184E8CF4B
:100D1000973009F4C0C0983021F481E08093F1004D
:100D2000B6C0993009F0B3C0837009F0B4C0EDE0EB
:100D3000F1E081E021E036E39081992361F0809336
:100D4000E9002093EB0091919093EC003093ED003B
:100D50008F5F873089F78EE78093EA001092EA0070
:100D60008F898093560193C08B8D9C8D1092E900E2
:100D700010924401109243019093420180934101EB
:100D8000898D811156C08E899D89913A59F481329D
:100D900009F081C047E050E064E071E080E00E942B
:100DA000D50175C0913209F076C0833289F4888DFF
:100DB00090E0982F88272F89822BA0E0B0E08093C5
:100DC000000190930101A0930201B09303015FC061
:100DD000803269F48091E80082FFFCCF67E084E014
:100DE00091E00E942E028BEF8093E80006C08232D1
:100DF00009F04DC08F8980930B01809145018823B4
:100E000019F0EEEFFAE002C0E0E0F8E080910401B2
:100E100090910501A0910601B0910701803B94409B
:100E2000A105B10509F07BC080910B0180FF93C043
:100E300076C00E945601DC0112960D911C91139709
:100E40000115110541F1D801ED91FC910190F0815E
:100E5000E02DBE016B5E7F4FC8010995811117C05F
:100E6000F80100851185ECCF113009F44EC0133024
:100E700091F48F89882309F445C0823081F440E8D9
:100E80006BE083ED91E00E949801882321F08EEFC2
:100E90008093E80079C081E28093EB0075C08130D7
:100EA00029F440E86BE087EC91E0EDCF833099F7CF
:100EB0000E945601DC011296ED90FC9013978E0172
:100EC0000F5F1F4F6801E114F10479F0D701ED9134
:100ED000FC910680F781E02DB801C7010995080F44
:100EE000111DF701E084F184EECFD8011C92F601C8
:100EF00001900020E9F73197BF016C197D0940E0AE
:100F0000C601C1CF61EB71E002C065EB71E0611514
:100F1000710509F2FB01449150E080E840CF0FB623
:100F2000F894A89580916000886180936000109289
:100F300060000FBEA895EE3F2AE0F20739F08091DD
:100F4000FE0A9091FF0A91838083A1CF1092FF0A3D
:100F50001092FE0A9CCFEE3F8AE0F80731F08081C4
:100F600091819093FF0A8093FE0A87E797E7918328
:100F700080839BE088E10FB6F894A8958093600089
:100F80000FBE9093600083CF6C960FB6F894DEBFCF
:100F90000FBECDBFDF91CF91FF91EF91BF91AF9188
:100FA0009F918F917F916F915F914F913F912F9181
:100FB0001F910F91FF90EF90DF90CF900F900FBE99
:100FC0000F901F9018951F920F920FB60F92112439
:100FD0002F933F938F939F93AF93BF93809139014A
:100FE00090913A01A0913B01B0913C0130913801C0
:100FF00023E0230F2D3720F40196A11DB11D05C05C
:1010000026E8230F0296A11DB11D2093380180937D
:10101000390190933A01A0933B01B0933C01809138
:101020003D0190913E01A0913F01B0914001019698
:10103000A11DB11D80933D0190933E01A0933F01FE
:10104000B0934001BF91AF919F918F913F912F91AC
:101050000F900FBE0F901F901895CF93E7E5F1E02A
:101060001382128288EE93E0A0E0B0E0848395833F
:10107000A683B78387E191E0918380838FEF9FEF11
:1010800095878487E7EAF1E0168217821086118639
:10109000128613861486158616861786108A118A7C
:1010A000128A138A148A158A0E94EA04EFE0F2E099
:1010B000608371838283938382E090E0958384834D
:1010C000178210868DE0868312861186C1E0C38761
:1010D0000E94EA04E3E0F2E06083718382839383F9
:1010E00084EF91E0958384831782108684E0868361
:1010F00012861186C3870E94EA04E7EFF1E060835D
:101100007183828393838EEE92E09583848317822A
:10111000108685E0868312861186C387E5EFF1E0AD
:101120008AE0808311820E94EA04EFEEF1E060839E
:1011300071838283938388EE93E095838483CF9138
:101140000895789484B5826084BD84B5816084BD3F
:1011500085B5826085BD85B5816085BD80916E0055
:10116000816080936E001092810080918100826086
:1011700080938100809181008160809381008091C3
:1011800080008160809380008091910082608093D4
:1011900091008091910081608093910080919000F6
:1011A0008160809390008091C10084608093C10031
:1011B0008091C10082608093C1008091C1008160F4
:1011C0008093C1008091C30081608093C3008091AF
:1011D000C00082608093C0008091C20081608093D3
:1011E000C20080917A00846080937A0080917A00B6
:1011F000826080937A0080917A00816080937A0087
:1012000080917A00806880937A0010925601109243
:101210004601109247018091D70081608093D700EA
:1012200080EA8093D80089B5806189BD89B58260E4
:1012300089BD09B400FEFDCF61E070E080E090E080
:101240000E942B048091D8008F7C80618093D8000D
:101250008091E000807F8093E0008091E1008E7EAD
:101260008093E1008DE08093E200559A209AEEEFA2
:10127000FFE7859194918B3F9C4D19F481E0809319
:1012800045011092EB011092EC011092ED011092C9
:10129000EE011092A9011092AA011092AB011092D6
:1012A000AC010E94EA046B017C014B015C0188EBFC
:1012B000880E8BE0981EA11CB11C0E94EA046C15DC
:1012C0007D058E059F0528F086169706A806B906A7
:1012D000A0F787E591E09093EA018093E901CBE1E3
:1012E000D0E010910B016AE070E080E090E00E9495
:1012F0002B04111109C0219739F064E670E080E0F9
:1013000090E00E942B04EDCFE091E901F091EA0119
:101310008FEF9FEF958784870E94EA046093A9016D
:101320007093AA018093AB019093AC018091E90185
:101330009091EA01DC01ED91FC910280F381E02DB6
:1013400041E150E065E271E009950E94EA046B0119
:101350007C014B015C01BAE08B0E911CA11CB11CFD
:101360000E94EA046C157D058E059F0528F08616FF
:101370009706A806B906A0F781E08093BD018FEF1C
:101380009FEF9093640180936301C0E5D1E001E396
:1013900011E032E1E32E31E0F32E40E0C42E40E0D4
:1013A000D42EAA24A3948FE092E00E94F60488230E
:1013B00071F18091180290911902833091051CF40B
:1013C000A0921A0203C08F3F910534F420911A02B3
:1013D000222329F0019607C010921A0203C082301E
:1013E00091052CF002979093190280931802809037
:1013F000180290901902B401809115020E945803BE
:10140000892819F0A092170202C01092170287EFE4
:1014100091E00E94240583E092E00E9424058FEE73
:1014200091E00E94F604882319F1FE018491F801ED
:101430009490F701B490BB2011F181110E94EB024E
:101440008B2D90E0880F991F8C5F9E4FFC01A5911A
:10145000B4918C91982299F08091F601811108C085
:101460006FEF70E08091F5010E945803A092F601A1
:10147000C114D10409F497CF0E94000094CF809149
:10148000F6018823A9F360E070E08091F5010E94E5
:1014900058031092F601ECCFEE0FFF1F0590F49168
:1014A000E02D099481E090E0F8940C94570AF894A8
:0214B000FFCF6C
:1014B200FFFFFFFF00E100000000000000C180818B
:1014C200000000000000006602650487027C02CD75
:1014D200028B02A902564D4450565F317C315F5651
:0814E2004D4450560D0A0000B4
:1070000055C000006EC000006CC000006AC00000E7
:1070100068C0000066C0000064C0000062C00000DC
:1070200060C000005EC00000FCC400005AC0000048
:1070300058C0000056C0000054C0000052C00000FC
:1070400050C000005DC000004CC000004AC00000FD
:1070500048C0000046C0000044C0000042C000001C
:1070600040C000003EC000003CC000003AC000002C
:1070700038C0000036C0000034C0000032C000003C
:1070800030C000002EC000002CC000002AC000004C
:1070900028C0000026C0000024C0000022C000005C
:1070A00020C000001EC000001CC0000011241FBE34
:1070B000CFEFDAE0DEBFCDBF11E0A0E0B1E0E6E463
:1070C000FFE702C005900D92A63AB107D9F711E08B
:1070D000A6EAB1E001C01D92AF3BB107E1F74FD383
:1070E00030C78ECFF89410926F001092810081E02B
:1070F00085BF15BE47985D9A289A0C9400000895A4
:107100001F920F920FB60F9211242F938F939F937C
:10711000EF93FF9310928500109284008091A60156
:107120009091A701009741F001979093A701809358
:10713000A601892B09F45D9A8091A8019091A9017B
:10714000009741F001979093A9018093A801892BA2
:1071500009F4289A8091AC019091AD010196909329
:10716000AD018093AC01E0E0F0E0859194918F5FF8
:107170009F4F49F08091AA019091AB0101969093A5
:10718000AB018093AA01FF91EF919F918F912F9175
:107190000F900FBE0F901F90189584E08093E90028
:1071A0000DC08091E8008B778093E80003C08EB318
:1071B000882351F08091E80082FFF9CF8091E800A8
:1071C00085FFEFCF8091F1000895982F83E08093A1
:1071D000E9008091E80085FD0DC08091E8008E7780
:1071E0008093E80003C08EB3882369F08091E800A3
:1071F00080FFF9CF9093F1005D9884E690E0909342
:10720000A7018093A60108954F925F926F927F929B
:107210008F929F92AF92BF92CF92DF92EF92FF92A6
:107220000F931F93CF93DF9384E08093E9008091C5
:10723000E80082FF57C2289884E690E09093A90165
:107240008093A801AADF182F853481F48CE49DE196
:107250009093AB018093AA0107B600FCFDCFF9998A
:10726000FECF81E180935700E89503C0843519F47F
:1072700094DF8DE00DC28C34E1F38035D1F3843797
:1072800021F484E4A2DF80E003C2813611F489E5B1
:10729000FFC18134B1F481DF182F7FDF90E0880FC8
:1072A000991FAA2797FDA095BA2F312F330F20E001
:1072B000442737FD4095542F822B932BA42BB52BBD
:1072C000B8C1803711F483E5E3C1833549F4C0E0E8
:1072D000D1E089917ADF21E0C730D207D1F7D9C157
:1072E000863521F481E371DF80E3D2C1833731F445
:1072F00087E86BDF85E969DF8EE1CAC18536B9F4BD
:10730000E0E0F0E093E085E090935700E89507B661
:1073100000FCFDCF80935700E89507B600FCFDCF39
:10732000E058FF4FA0E7E030FA0771F7A2CF8237AD
:1073300039F4E1E0F0E089E0809357008491A8C13E
:10734000863439F4E0E0F0E089E0809357008491DE
:107350009FC18E3439F4E3E0F0E089E08093570078
:10736000849196C1813539F4E2E0F0E089E08093C0
:10737000570084918DC1823631F489E526DF80E0A3
:1073800024DF80E885C1823419F0873609F0E5C032
:107390001092AB011092AA0100DF082FFEDEF82E3A
:1073A000FCDE682E8554823008F071C1902F80E099
:1073B000CF2DD0E0C82BD92B10926F00173609F0D3
:1073C0004BC081E180935700E895DD24CC24C39421
:1073D0003FC0E090AF01F090B0010091B101109179
:1073E000B201B6E46B16D9F4ED2DF0E0EE29FF29D9
:1073F000E4918E2FEADEDD2081F082E090E0A0E0D3
:10740000B0E0E80EF91E0A1F1B1FE092AF01F092D8
:10741000B0010093B1011093B201DC2418C0D8016F
:10742000C701B695A7959795879575D5CEDE82E06D
:1074300090E0A0E0B0E0E80EF91E0A1F1B1FE092EA
:10744000AF01F092B0010093B1011093B201219706
:10745000209709F0BECF7DC08090AF019090B00121
:10746000A090B101B090B20196E4691609F05DC038
:1074700083E0F40180935700E89507B600FCFDCF48
:1074800054C0F6E46F1661F5772031F1E090AF015A
:10749000F090B0010091B1011091B2017EDED82EC2
:1074A000CC24852D90E08C299D29F7010C01409278
:1074B0005700E895112482E090E0A0E0B0E0E80EEB
:1074C000F91E0A1F1B1FE092AF01F092B00100935A
:1074D000B1011093B20102C060DE582E742423C0A3
:1074E000E090AF01F090B0010091B1011091B201B4
:1074F00016950795F794E79450DE682FC70113D5CA
:107500008091AF019091B001A091B101B091B20111
:107510000296A11DB11D8093AF019093B001A0937D
:10752000B101B093B201219704C0552477244424BB
:107530004394209709F0A5CF96E4691641F485E0BD
:10754000F40180935700E89507B600FCFDCF8DE06D
:107550003CDE82E080936F009CC0833471F4009124
:10756000AF011091B00119DE90E021E0F8010C01AB
:1075700020935700E89511247CCE833619F5E090CE
:10758000AF01F090B0010091B1011091B20105DEA0
:10759000F701E16090E021E00C0120935700E895AD
:1075A000112482E090E0A0E0B0E0E80EF91E0A1F8E
:1075B0001B1FE092AF01F092B0010093B101109354
:1075C000B20157CE8D3661F4E091AF01F091B00178
:1075D00085E080935700E89507B600FCFDCF49CEC3
:1075E000823551F4E091AF01F091B0010591149111
:1075F000812FEBDD802F4CC0843421F5E090AF016A
:10760000F090B0010091B1011091B201169507956B
:10761000F794E794C2DD682FC70185D48091AF014C
:107620009091B001A091B101B091B2010296A11D5B
:10763000B11D8093AF019093B001A093B101B093BD
:10764000B20117CE843609F5E090AF01F090B00199
:107650000091B1011091B201D801C701B695A7956B
:107660009795879558D4B1DD82E090E0A0E0B0E036
:10767000E80EF91E0A1F1B1FE092AF01F092B00145
:107680000093B1011093B20104C08B3111F08FE36C
:107690009CDD83E08093E9009091E8008091E80010
:1076A0008E778093E80095FF04C010C08EB38823C6
:1076B000C9F08091E80080FFF9CF8091E8008E77D3
:1076C0008093E80003C08EB3882361F08091E800C6
:1076D00080FFF9CF84E08093E9008091E8008B7708
:1076E0008093E800DF91CF911F910F91FF90EF9071
:1076F000DF90CF90BF90AF909F908F907F906F90D2
:107700005F904F9008959091B701892F8F778132C4
:1077100049F58091B8018032A1F0813219F5913A92
:1077200009F58091E800877F8093E8008CE091E084
:1077300067E070E027D28091E8008B778093E800C3
:107740000895913279F48091E800877F8093E80072
:107750008CE091E067E070E079D28091E8008E776C
:107760008093E800089582E061EC42E0D1D083E0AC
:1077700061E842E1CDD084E060E842E1C9C01F93F6
:10778000209100081092000844B714BE88E10FB69B
:10779000F89480936000109260000FBE80E8E0E0F3
:1077A000F0E00FB6F89480936100E09361000FBEA3
:1077B00031E035BF92E095BF3F9A209A559A809369
:1077C00061001092610047985D9A289A1092890092
:1077D0008AEF8093880090936F0083E0809381000C
:1077E000859194918F5F9F4F11F03093AE01942F4C
:1077F00041FF19C0809109012817A9F08093000862
:10780000789480911301882339F08091AC01909194
:10781000AD018F5E9240C8F310920008F89481E0A9
:10782000809313010CC090FF04C08091AE018823A7
:1078300051F493FF09C080910901281729F0809124
:10784000AE01882309F04EDCD4D078941092AB01BD
:107850001092AA011EEF20C0D7DC4BD38091AA0161
:107860009091AB0181549F4110F0109213018091CF
:10787000B3019091B40101969093B4018093B30148
:10788000292F97FF03C0512F591B252F220F28178F
:1078900010F4479801C0479A809113018823E1F6BC
:1078A0008091E00081608093E0001CDC80E090E04B
:1078B0001F910895FA01923049F0933061F09130B0
:1078C000F9F484E191E022E130E01EC086E291E02B
:1078D0002EE330E019C0882329F484E691E024E007
:1078E00030E012C0813029F488E691E022E230E0F5
:1078F0000BC0823029F48CE891E028E130E004C02C
:1079000080E090E020E030E091838083C901089519
:107910008093E9008091EB0081608093EB001092EE
:10792000ED006093EC004093ED008091EE00881F25
:107930008827881F08958091B70188238CF403C09D
:107940008EB38823B1F08091E80082FFF9CF809157
:10795000E8008B778093E80008958EB3882349F080
:107960008091E80080FFF9CF8091E8008E778093C6
:10797000E8000895EF92FF920F931F9345D04CD0EB
:1079800008ED10E0F80180818F7780838081806826
:10799000808380818F7D808319BC1EBA1092B501CF
:1079A00080EEE82EF12CF70180818B7F8083F80137
:1079B00080818160808380E060E042E0A9DFE1EEC9
:1079C000F0E080818E7F8083E2EEF0E08081816054
:1079D0008083808188608083F70180818E7F8083AF
:1079E000F8018081806180831F910F91FF90EF905B
:1079F0000895E7EDF0E08081816080838AE482BFB2
:107A000081E08093B601B6CFE8EDF0E080818E7F13
:107A100080831092E20008951092DA001092E10043
:107A200008951F920F920FB60F9211242F933F9338
:107A30004F935F936F937F938F939F93AF93BF9376
:107A4000EF93FF938091DA0080FF1BC08091D800F4
:107A500080FF17C08091DA008E7F8093DA008091DA
:107A6000D90080FF0BC080E189BD82E189BD09B4E6
:107A700000FEFDCF81E08EBB3BD203C019BC1EBA15
:107A800037D28091E10080FF17C08091E20080FF33
:107A900013C08091E2008E7F8093E2008091E2002B
:107AA00080618093E2008091D80080628093D8004A
:107AB00019BC85E08EBB1CD28091E10084FF2CC0F4
:107AC0008091E20084FF28C080E189BD82E189BD08
:107AD00009B400FEFDCF8091D8008F7D8093D8003F
:107AE0008091E1008F7E8093E1008091E2008F7EA3
:107AF0008093E2008091E20081608093E2008091B7
:107B0000B501882331F48091E30087FD02C081E054
:107B100001C084E08EBBECD18091E10083FF21C0E5
:107B20008091E20083FF1DC08091E100877F8093F8
:107B3000E10082E08EBB1092B5018091E1008E7F62
:107B40008093E1008091E2008E7F8093E20080913B
:107B5000E20080618093E20080E060E042E0D8DEF5
:107B6000C7D1FF91EF91BF91AF919F918F917F917D
:107B70006F915F914F913F912F910F900FBE0F909A
:107B80001F9018959C014091BD015091BE01461770
:107B9000570718F4F90190E044C06115710511F020
:107BA000AB01F8CF8091E8008E778093E80040E049
:107BB00050E0F0CF8EB3882309F444C0853009F437
:107BC00043C08091E80083FF02C081E00895809166
:107BD000E80082FD31C08091E80080FF22C08091E2
:107BE000F3009091F200782F60E0292F30E0262BEF
:107BF000372B07C081918093F100415050402F5F97
:107C00003F4F4115510519F02830310598F390E0A8
:107C10002830310509F491E08091E8008E77809357
:107C2000E8004115510531F6992321F605C08EB3C0
:107C3000882341F0853041F08091E80082FFF7CF42
:107C400080E0089582E0089583E008959C01611525
:107C5000710529F48091E8008B778093E800F901A1
:107C600026C08EB3882391F1853091F18091E80090
:107C700083FF02C081E008958091E80082FFF1CF88
:107C800006C08091F10081936150704059F02091BD
:107C9000F3008091F200322F20E090E0822B932BB2
:107CA000892B79F78091E8008B778093E800611544
:107CB0007105B9F605C08EB3882341F0853041F0D7
:107CC0008091E80080FFF7CF80E0089582E008957A
:107CD00083E008950F931F93DF93CF9300D0CDB728
:107CE000DEB7E7EBF1E08091F100819381E0EF3BBB
:107CF000F807C9F708DD8091E80083FFE4C08091B0
:107D0000B7019091B801953009F46DC0963040F4F8
:107D1000913081F1913070F0933009F0D4C02AC0D5
:107D2000983009F4A3C0993009F4B2C0963009F034
:107D3000CAC07CC0803809F4C6C0823809F0C3C00C
:107D40008091BB0187708093E9008091EB001092D5
:107D5000E9002091E800277F2093E80090E025E0EB
:107D6000969587952A95E1F781708093F10010929E
:107D7000F10087C0882319F0823009F0A4C08F7108
:107D8000823009F0A0C08091B901882331F520919B
:107D9000BB01277009F497C02093E9008091EB00A4
:107DA00080FF1BC0933021F48091EB00806213C0F0
:107DB0008091EB0080618093EB0081E090E002C055
:107DC000880F991F2A95E2F78093EA001092EA0043
:107DD0008091EB0088608093EB001092E900809125
:107DE000E800877F51C0882309F06DC01091B90168
:107DF0001F770FB7F8948091E800877F8093E800A1
:107E00009ADD8091E80080FFFCCF8091E3008078CC
:107E1000812B8093E30080688093E300112311F4A9
:107E200082E001C083E08EBB0FBF4DC0805882301E
:107E300008F049C08091B9019091BA016091BB01ED
:107E4000AE014F5F5F4F36DDBC01009709F43BC0C8
:107E50008091E800877F8093E80089819A8192DE93
:107E60008091E8008B778093E8002DC0803859F529
:107E70008091E800877F8093E8008091B50180932E
:107E8000F1008091E8008E778093E80054DD1BC0FC
:107E90008823C9F49091B9019230A8F48091E80048
:107EA000877F8093E8009093B50145DD8091B5010F
:107EB000882331F48091E30087FD02C081E001C096
:107EC00084E08EBB50DC8091E80083FF0AC0809183
:107ED000EB0080628093EB008091E800877F8093C5
:107EE000E8000F900F90CF91DF911F910F910895AF
:107EF00008951F938EB3882361F01091E9001092CA
:107F0000E9008091E80083FF01C0E4DE1770109360
:107F1000E9001F910895F999FECF92BD81BDF89AAD
:107F2000992780B50895262FF999FECF1FBA92BDE3
:107F300081BD20BD0FB6F894FA9AF99A0FBE01964A
:067F40000895F894FFCF44
:107F46004341544552494E41007700080000000065
:107F5600000008011201100102000008412341003F
:107F660001000201000109023E00020100803209FF
:107F7600040000010202010005240010010424028D
:107F8600040524060001070582030800FF09040111
:107F960000020A000000070504021000010705831D
:107FA6000210000104030904220341007200640068
:107FB600750069006E006F002000590075006E00A4
:107FC60020002000200020002000000018034100AF
:107FD60072006400750069006E006F0020004C009E
:067FE6004C004300000006
:040000030000700089
:00000001FF